:020000040000FA
:100000000C9463000C948B000C948B000C948B006C
:100010000C948B000C948B000C948B000C94E503D7
:100020000C948B000C94E9050C948B000C94E30465
:100030000C948B000C948B000C948B000C948B0014
:100040000C9499040C948B000C9467040C94410458
:100050000C948B000C948B000C948B000C948B00F4
:100060000C948B000C948B000000000024002700EF
:100070002A000000000023002600290000000008DC
:10008000000201000003040700000000000000005F
:10009000010204081020408001020408102001021F
:1000A0000408102000000000250028002B00040494
:1000B0000404040404040202020202020303030310
:1000C00003030200920611241FBECFEFD8E0DEBF6B
:1000D000CDBF11E0A0E0B1E0EEEEF6E102C0059088
:1000E0000D92AC37B107D9F722E0ACE7B1E001C01F
:1000F0001D92AF38B207E1F710E0C3E6D0E004C0CC
:100100002197FE010E94660BC236D107C9F70E94F3
:10011000E1060C94750B0C940000E0918E022FEF19
:100120002E0F283098F40897AC01440F452F441F38
:10013000550B2E2F30E0F901EE0FFF1FE20FF31FDA
:10014000EB52FE4F4183880F809582830895AF92D2
:10015000BF92CF92DF92EF92FF920F931F93CF93B4
:10016000DF936C017B018B01040F151FEB015E0116
:10017000AE18BF08C017D10759F06991D601ED91AB
:10018000FC910190F081E02DC6010995892B79F74A
:10019000C501DF91CF911F910F91FF90EF90DF90FC
:1001A000CF90BF90AF900895FC01538D448D252FC3
:1001B00030E0842F90E0821B930B541710F0CF9601
:1001C000089501970895FC01918D828D981761F033
:1001D000A28DAE0FBF2FB11D5D968C91928D9F5F4A
:1001E0009F73928F90E008958FEF9FEF0895FC0129
:1001F000918D828D981731F0828DE80FF11D858DDC
:1002000090E008958FEF9FEF0895FC01918D228D6E
:10021000892F90E0805C9F4F821B91098F739927F3
:10022000089580EF91E00E94050121E0892B09F4F7
:1002300020E0822F089580E090E0892B29F00E9431
:10024000110181110C9400000895FC01A48DA80FE8
:10025000B92FB11DA35ABF4F2C91848D90E0019608
:100260008F739927848FA689B7892C93A089B18928
:100270008C91837080648C93938D848D981306C0C9
:100280000288F389E02D80818F7D80830895EF922D
:10029000FF920F931F93CF93DF93EC0181E0888F40
:1002A0009B8D8C8D98131AC0E889F989808185FF10
:1002B00015C09FB7F894EE89FF896083E889F989B2
:1002C00080818370806480839FBF81E090E0DF91B4
:1002D000CF911F910F91FF90EF900895F62E0B8D07
:1002E00010E00F5F1F4F0F731127E02E8C8D8E11C2
:1002F0000CC00FB607FCFACFE889F989808185FF29
:10030000F5CFCE010E942501F1CFEB8DEC0FFD2F33
:10031000F11DE35AFF4FF0829FB7F8940B8FEA89E3
:10032000FB8980818062CFCFCF93DF93EC01888DF2
:100330008823B9F0AA89BB89E889F9898C9185FD60
:1003400003C0808186FD0DC00FB607FCF7CF8C91EE
:1003500085FFF2CF808185FFEDCFCE010E94250180
:10036000E9CFDF91CF910895833081F028F4813077
:1003700099F08230A9F008958730A9F08830C9F04B
:100380008430B1F4809180008F7D03C08091800023
:100390008F7780938000089584B58F7784BD08950A
:1003A00084B58F7DFBCF8091B0008F778093B000B4
:1003B00008958091B0008F7DF9CFCF93DF93282FE0
:1003C00030E0F901E458FF4F8491F901E057FF4F05
:1003D000D491F901E255FF4FC491CC23A1F08111D2
:1003E0000E94B401EC2FF0E0EE0FFF1FEE58FF4F1C
:1003F000A591B491EC91ED2381E090E009F480E0C7
:10040000DF91CF91089580E090E0FACF1F93CF93D2
:10041000DF93282F30E0F901E458FF4F8491F90170
:10042000E057FF4FD491F901E255FF4FC491CC231F
:10043000A9F0162F81110E94B401EC2FF0E0EE0F0D
:10044000FF1FEC55FF4FA591B4918FB7F894EC9135
:10045000111108C0D095DE23DC938FBFDF91CF91BF
:100460001F910895DE2BF8CF9091030189130BC0E3
:10047000E2ECF0E0E4919FEF90930301E13049F06A
:1004800028F0E23061F060E00C94060210926E00F9
:10049000FACF90916F009D7F90936F00F4CF909171
:1004A00070009D7F9093700091E09093B0009091C8
:1004B000B100987F94609093B1001092B300E3CFA5
:1004C000CF93DF9390E0FC01E057FF4F24918255DA
:1004D0009F4FFC0184918823D1F090E0880F991FF1
:1004E000FC01E859FF4FA591B491FC01EC55FF4F79
:1004F000C591D49161110EC09FB7F8948C91E22FF1
:10050000E0958E238C932881E223E8839FBFDF91BF
:10051000CF9108958FB7F894EC91E22BEC938FBFB5
:10052000F6CFCF93809103018C3021F08F3F59F1AA
:10053000CF910895E2ECF0E0C491C7FDF9CF61E0FE
:100540008CE00E946002CC2309F48BC0C23009F019
:100550009FC08091B100887F83608093B10089EF54
:100560008093B3008FEF9FEFDC018093C9019093DC
:10057000CA01A093CB01B093CC018091700082603E
:1005800080937000D5CF8CE080930301E2ECF0E023
:10059000C491CF3F69F2C13021F150F0C23009F46B
:1005A0003EC0C7FDC5CF61E08CE00E946002CECFA7
:1005B00014BC15BC84B5826084BD85B5816085BDE1
:1005C000EAEBF0E0E491F0E0EE0FFF1FEC55FF4F97
:1005D00085919491ECE9F0E0E491E093C801C0E0EA
:1005E000AECF1092800010928100809181008860CF
:1005F0008093810080918100816080938100EAEB8B
:10060000F0E0E491F0E0EE0FFF1FEC55FF4F859115
:100610009491ECE9F0E0E491E093C70190CF10925F
:10062000B0001092B1008091B00082608093B00061
:100630008091B10081608093B100EAEBF0E0E49139
:10064000F0E0EE0FFF1FEC55FF4F859194919093D2
:10065000C6018093C501ECE9F0E0E491E093C401A8
:100660006ECF85B5887F836085BD8CE787BD8FEFB2
:100670009FEFDC018093D1019093D201A093D3012D
:10068000B093D40180916E00826080936E0050CF51
:10069000C130E9F480918100887F8160809381007E
:1006A0008FE39FE190938900809388008FEF9FEF05
:1006B000DC018093CD019093CE01A093CF01B09344
:1006C000D00180916F00826080936F0031CFC23083
:1006D00021F0C1112DCF8FE3C9CF8FE341CF3FB7B9
:1006E000F89480918F0190919001A0919101B09127
:1006F000920126B5A89B05C02F3F19F00196A11DB8
:10070000B11D3FBFBA2FA92F982F8827BC01CD015B
:10071000620F711D811D911D42E0660F771F881FBA
:10072000991F4A95D1F708958F929F92AF92BF92E9
:10073000CF92DF92EF92FF924B015C010E946F0318
:100740006B017C010E946F036C197D098E099F0962
:10075000683E734081059105A8F321E0821A910853
:10076000A108B10888EEC80E83E0D81EE11CF11C78
:1007700081149104A104B10429F7FF90EF90DF9058
:10078000CF90BF90AF909F908F90089542E050E03F
:1007900063E571E080EF91E00C94A700CF93DF93C5
:1007A000FC0101900020E9F73197AF01481B590B7C
:1007B000BC0180EF91E00E94A700EC010E94C603FB
:1007C0008C0F9D1FDF91CF9108951F920F920FB64E
:1007D0000F9211242F933F934F935F936F937F93C7
:1007E0008F939F93AF93BF93EF93FF938091C90132
:1007F0009091CA01A091CB01B091CC01892B8A2B99
:100800008B2BD1F19091C401E091C501F091C6010B
:100810008081892780838091C9019091CA01A0912C
:10082000CB01B091CC01181619061A061B069CF4D0
:100830008091C9019091CA01A091CB01B091CC01E6
:100840000197A109B1098093C9019093CA01A093AE
:10085000CB01B093CC01FF91EF91BF91AF919F91EC
:100860008F917F916F915F914F913F912F910F9059
:100870000FBE0F901F901895809103010E943402C3
:10088000EACF1F920F920FB60F9211242F933F932E
:100890004F935F936F937F938F939F93AF93BF9388
:1008A000EF93FF9380EF91E00E942501FF91EF917C
:1008B000BF91AF919F918F917F916F915F914F9178
:1008C0003F912F910F900FBE0F901F9018951F9280
:1008D0000F920FB60F9211242F938F939F93EF9344
:1008E000FF93E0910002F09101028081E091060205
:1008F000F091070282FD1BC09081809109028F5FF9
:100900008F7320910A02821741F0E0910902F0E012
:10091000E051FE4F958F80930902FF91EF919F91D7
:100920008F912F910F900FBE0F901F90189580817F
:10093000F4CF1F920F920FB60F9211242F933F9373
:100940008F939F93AF93BF9380918B0190918C0174
:10095000A0918D01B0918E0130918A0123E0230F87
:100960002D3758F50196A11DB11D20938A01809362
:100970008B0190938C01A0938D01B0938E01809197
:100980008F0190919001A0919101B09192010196F7
:10099000A11DB11D80938F0190939001A0939101AF
:1009A000B0939201BF91AF919F918F913F912F9101
:1009B0000F900FBE0F901F90189526E8230F0296F8
:1009C000A11DB11DD2CF1F920F920FB60F9211240D
:1009D0002F933F934F935F936F937F938F939F9347
:1009E000AF93BF93CF93EF93FF93C0919701CC2325
:1009F00051F080918901811106C0809100010E940F
:100A0000DD0180938801809189018823D9F080914C
:100A1000870191E0980F90938701811113C060E0E6
:100A20008AE00E94060260E08CE00E9406021092BA
:100A300089018091850190918601019690938601AC
:100A40008093850180918701883010F01092870192
:100A5000CC2309F47AC080918901811176C09091EC
:100A60008801992329F0809184018F5F809384010C
:100A70008091820120918301921709F478C02BE0C4
:100A8000803508F02DE1820F8093820190938301DD
:100A900020918201203A08F458C080918001909101
:100AA0008101969587959093810180938001309183
:100AB0008401353028F09860909381018093800103
:100AC000205A2093820110928401809196018823FC
:100AD00009F46EC080917F018F5F80937F018C301D
:100AE000A0F14091800150918101942F9F73E2E128
:100AF000F1E0DF0180E02D91921721F08F5F8031CE
:100B0000D1F780E090E1899F9001112486E056950D
:100B100047958A95E1F780E09191491721F08F5F21
:100B20008031D1F780E0822B9091B601911123C0E2
:100B300080937E019CEF980F9B31E8F01092960114
:100B400080917D018F5F80937D01FF91EF91CF9127
:100B5000BF91AF919F918F917F916F915F914F91D5
:100B60003F912F910F900FBE0F901F9018958C5EA4
:100B7000809382018DCFE091B60191E09E0F90931A
:100B8000B601F0E0E856FE4F80839091B601809167
:100B90007E01981750F01092960180917C018F5F32
:100BA00080937C0181E08093B70110927F01CDCFCB
:100BB000809180019091810188339B4031F681E0E2
:100BC0008093960110927F011092B6011092B701A6
:100BD000BCCF1F920F920FB60F9211242F933F9309
:100BE0004F935F936F937F938F939F93AF93BF9335
:100BF000EF93FF93809193018F5F80939301E09136
:100C00009401209193018E2F90E0FC01EE0FFF1FC5
:100C1000E80FF91FEB52FE4F8181E091940182139E
:100C20001DC08E2F90E0FC01EE0FFF1FE80FF91F93
:100C3000EB52FE4F82818093B200FF91EF91BF9102
:100C4000AF919F918F917F916F915F914F913F9164
:100C50002F910F900FBE0F901F9018952091930128
:100C60008E2F90E0FC01EE0FFF1FE80FF91FEB52F3
:100C7000FE4F8181821708F7E09194018E2F90E05A
:100C8000FC01EE0FFF1FE80FF91FEB52FE4F8081B2
:100C900085FF10C0E09194018E2F90E0FC01EE0FD3
:100CA000FF1FE80FF91FEB52FE4F808160E08F714C
:100CB0000E940602809194018F5F809394011092AC
:100CC00093011092B20080919401882319F18091D0
:100CD00094018930F8F4E09194018E2F90E0FC01AA
:100CE000EE0FFF1FE80FF91FEB52FE4F808185FFCB
:100CF000A4CFE09194018E2F90E0FC01EE0FFF1F36
:100D0000E80FF91FEB52FE4F808161E08F710E9466
:100D1000060293CF80919401893008F48ECF10920F
:100D200094018BCF1092F3011092F20188EE93E0C0
:100D3000A0E0B0E08093F4019093F501A093F60158
:100D4000B093F70185E491E09093F1018093F00175
:100D500085EC90E09093FD018093FC0184EC90E0A1
:100D60009093FF018093FE0180EC90E0909301024C
:100D70008093000281EC90E0909303028093020242
:100D800082EC90E0909305028093040286EC90E060
:100D900090930702809306021092090210920A02B1
:100DA00010920B0210920C0280918D02883030F468
:100DB0008F5F80938D0280938E02089510928E0231
:100DC0000895CF93DF93CDB7DEB76E970FB6F89443
:100DD000DEBF0FBECDBF789484B5826084BD84B57C
:100DE000816084BD85B5826085BD85B5816085BD26
:100DF00080916E00816080936E00109281008091DE
:100E00008100826080938100809181008160809365
:100E10008100809180008160809380008091B1008A
:100E200084608093B1008091B00081608093B000B5
:100E300080917A00846080937A0080917A00826049
:100E400080937A0080917A00816080937A0080910B
:100E50007A00806880937A001092C10061E08CE093
:100E60000E94600280919501811121C0E5EDF1E0C1
:100E70009BE087E594838583339621E0ED3EF2077E
:100E8000C9F78EE38093D6011092940110929301DA
:100E9000109270001092B00082E08093B100109226
:100EA000B20081E087BB80937000809395018091B0
:100EB0008E028823A1F061E08BE00E946002E09145
:100EC0008E028E2F90E0FC01EE0FFF1FE80FF91F3E
:100ED000EB52FE4F8081807E8B608062808361E078
:100EE0008BE00E946002E0910002F091010282E03A
:100EF0008083E091FC01F091FD011082E091FE0100
:100F0000F091FF018FEC808310920802E0910402BF
:100F1000F091050286E08083E0910202F0910302E5
:100F2000808180618083E0910202F09103028081E0
:100F300088608083E0910202F091030280818068E2
:100F40008083E0910202F091030280818F7D808393
:100F50001092C1011092C0010091C0011091C10115
:100F600004301105ACF4F801EE0FFF1FED5CFE4FED
:100F7000F08060E08F2D0E94600261E08F2D0E9462
:100F800006020F5F1F4F1093C1010093C001E4CF11
:100F90001092C3011092C2010091C2011091C301CD
:100FA00003301105ACF4F801EE0FFF1FE55CFE4FB6
:100FB000F08061E08F2D0E94600261E08F2D0E9421
:100FC00006020F5F1F4F1093C3010093C201E4CFCD
:100FD0008DE0809300018EE0E4E0F1E0DE01119607
:100FE00001900D928A95E1F77E0163E0E60EF11C17
:100FF00011E0F701619171917F0190E080E00E9422
:10100000B00A9B01AC0160E074E284E79BE40E94BB
:10101000080A9B01AC0160E070E080E89FE30E9459
:10102000080A9B01AC016FE672E183E898E30E9435
:10103000080A0E947A0A4B015C01F2E08F1A9108BB
:10104000A108B1082DEF82162FEF9206A104B1047A
:1010500008F4DAC11F5F173061F66230710581054F
:10106000910550F161157105E1E08E07910520F5BC
:101070001092800028E02093810020918100122BA3
:1010800010938100709389006093880080916F00B5
:10109000826080936F0061E08CE00E94600260E0FB
:1010A000809100010E94600261E08AE00E9460027B
:1010B00060E08AE00E94060280919701811105C0DC
:1010C00081E0809397011092960102E010E070E0B9
:1010D000E72E70E0F72E1092C3011092C2018091AA
:1010E000C2019091C301833091050CF092C0880F2A
:1010F000991FFC01E55CFE4F60E080810E940602C2
:101100001092C1011092C0018090C0019090C10165
:10111000A090C201B090C301F4E08F1691040CF0CE
:1011200067C06401CC0CDD1CF601ED5CFE4F8081D4
:101130000E94DD01892B09F048C0F601E80DF91D78
:10114000E95DFE4FEA0DFB1D608180EF91E00E949A
:1011500047010E94C60364EF71E080E090E00E94C6
:1011600094038091BE019091BF012091C001309104
:10117000C101F901EE0FFF1FE20FF31FE95DFE4F02
:101180002091C2013091C301E20FF31FDC01AE5D7B
:10119000BE4F30812C91321322C02091BC0130917E
:1011A000BD012F5F3F4F3093BD012093BC010196DD
:1011B0009093BF018093BE018091BA019091BB01D1
:1011C00001969093BB018093BA018091C0019091E8
:1011D000C10101969093C1018093C00195CF1092F7
:1011E000BD011092BC011092BF011092BE01E4CF6C
:1011F000F501EE0FFF1FE55CFE4F61E080810E946C
:1012000006022FEFA21AB20AB092C301A092C20145
:1012100066CF8091BC019091BD01059789F58091C1
:10122000010190910201B8010E943E0B019709F063
:10123000BBC086E591E00E94CE038AEC98E00E9454
:101240008D0068EE73E080E090E00E94940380914E
:101250000101909102010196909302018093010196
:101260001092BF011092BE011092BD011092BC01FC
:101270001092BB011092BA011092B9011092B801FC
:101280008091BA019091BB010597C9F48DE691E078
:101290000E94CE031092BF011092BE011092BD01B8
:1012A0001092BC011092BB011092BA018091B8015A
:1012B0009091B90101969093B9018093B801809102
:1012C000B8019091B9010397B9F50E94910268EEB7
:1012D00073E080E090E00E9494038CE00E9434026E
:1012E00068EE73E080E090E00E9494030E94910217
:1012F00068EE73E080E090E00E9494038CE00E942E
:10130000340268EE73E080E090E00E9494030E9453
:10131000910268EE73E080E090E00E9494038CE01C
:101320000E94340268EE73E080E090E00E94940333
:101330001092B9011092B8018091B701882309F485
:101340004EC04091B60143504E3108F04EE150E09E
:1013500069E971E0CE0101960E946C0B1092B70111
:101360003091B601E8E9F1E08FEF9FEF315018F1CD
:101370002191282760E1269FA00111242427422FD4
:1013800050E0892F9927922BBA01A4E075956795B3
:10139000AA95E1F786279727B3E0440F551FBA9522
:1013A000E1F784279527E2CF81E691E00E94CE0302
:1013B0008CED95E044CF883B904F89F4898181364C
:1013C000D1F486E591E00E94CE038AEC98E00E9479
:1013D0008D0068EE73E080E090E00E949403E114D9
:1013E000F10409F478CE0E941101882309F473CE28
:1013F0000E94000070CE823691F781E691E00E9453
:10140000CE038CED95E0E3CF163009F031CE54CE0B
:101410000E941C0A0C94040B0E94FD0A58F00E94C2
:10142000F60A40F029F45F3F29F00C94ED0A5111BF
:101430000C94380B0C94F30A0E94150B68F3992353
:10144000B1F3552391F3951B550BBB27AA276217C0
:101450007307840738F09F5F5F4F220F331F441FCD
:10146000AA1FA9F335D00E2E3AF0E0E832D0915001
:101470005040E695001CCAF72BD0FE2F29D0660FEE
:10148000771F881FBB1F261737074807AB07B0E831
:1014900009F0BB0B802DBF01FF2793585F4F3AF037
:1014A0009E3F510578F00C94ED0A0C94380B5F3F89
:1014B000E4F3983ED4F3869577956795B795F795BD
:1014C0009F5FC9F7880F911D9695879597F90895A5
:1014D000E1E0660F771F881FBB1F62177307840741
:1014E000BA0720F0621B730B840BBA0BEE1F88F750
:1014F000E09508950E94810A6894B1110C94380B0C
:1015000008950E941D0B88F09F5798F0B92F9927D6
:10151000B751B0F0E1F0660F771F881F991F1AF0DE
:10152000BA95C9F714C0B13091F00E94370BB1E001
:1015300008950C94370B672F782F8827B85F39F000
:10154000B93FCCF3869577956795B395D9F73EF477
:1015500090958095709561957F4F8F4F9F4F08951F
:10156000E89409C097FB3EF490958095709561953D
:101570007F4F8F4F9F4F9923A9F0F92F96E9BB27F3
:101580009395F695879577956795B795F111F8CF6F
:10159000FAF4BB0F11F460FF1BC06F5F7F4F8F4FDA
:1015A0009F4F16C0882311F096E911C0772321F0D0
:1015B0009EE8872F762F05C0662371F096E8862F68
:1015C00070E060E02AF09A95660F771F881FDAF7BF
:1015D000880F9695879597F9089597F99F6780E802
:1015E00070E060E008959FEF80EC089500240A9475
:1015F0001616170618060906089500240A941216EE
:101600001306140605060895092E0394000C11F420
:10161000882352F0BB0F40F4BF2B11F460FF04C0CD
:101620006F5F7F4F8F4F9F4F089557FD9058440F26
:10163000551F59F05F3F71F04795880F97FB991F31
:1016400061F09F3F79F087950895121613061406EE
:10165000551FF2CF4695F1DF08C01616170618067B
:10166000991FF1CF86957105610508940895E89456
:10167000BB2766277727CB0197F9089597FB072E9D
:1016800016F4009407D077FD09D00E94520B07FC96
:1016900005D03EF4909581959F4F08957095619582
:1016A0007F4F0895AA1BBB1B51E107C0AA1FBB1F98
:1016B000A617B70710F0A61BB70B881F991F5A95DE
:1016C000A9F780959095BC01CD010895EE0FFF1FFD
:1016D0000590F491E02D0994FB01DC0102C001901A
:1016E0000D9241505040D8F70895F894FFCF0B0168
:1016F00000FF000001000800400000010004050D8B
:101700000D0E131516191A1C232526292A2C3234DE
:1017100031333537392A3023373839343536313299
:10172000330200030004000500080009000A00005D
:101730000000004701A700D40094010501E300F771
:10174000000D0A00446F6F72204F70656E200044D8
:101750006F6F7220436C6F73652000416363657324
:0A176000732044656E6965640000A3
:107E0000112484B714BE81FFF0D085E080938100F7
:107E100082E08093C00088E18093C10086E0809377
:107E2000C20080E18093C4008EE0C9D0259A86E02C
:107E300020E33CEF91E0309385002093840096BBD3
:107E4000B09BFECF1D9AA8958150A9F7CC24DD24C4
:107E500088248394B5E0AB2EA1E19A2EF3E0BF2EE7
:107E6000A2D0813461F49FD0082FAFD0023811F036
:107E7000013811F484E001C083E08DD089C08234E0
:107E800011F484E103C0853419F485E0A6D080C0E4
:107E9000853579F488D0E82EFF2485D0082F10E0AE
:107EA000102F00270E291F29000F111F8ED06801E7
:107EB0006FC0863521F484E090D080E0DECF843638
:107EC00009F040C070D06FD0082F6DD080E0C81688
:107ED00080E7D80618F4F601B7BEE895C0E0D1E017
:107EE00062D089930C17E1F7F0E0CF16F0E7DF06D8
:107EF00018F0F601B7BEE89568D007B600FCFDCFD4
:107F0000A601A0E0B1E02C9130E011968C91119780
:107F100090E0982F8827822B932B1296FA010C0160
:107F200087BEE89511244E5F5F4FF1E0A038BF0790
:107F300051F7F601A7BEE89507B600FCFDCF97BE46
:107F4000E89526C08437B1F42ED02DD0F82E2BD052
:107F50003CD0F601EF2C8F010F5F1F4F84911BD097
:107F6000EA94F801C1F70894C11CD11CFA94CF0C13
:107F7000D11C0EC0853739F428D08EE10CD085E9AC
:107F80000AD08FE07ACF813511F488E018D01DD067
:107F900080E101D065CF982F8091C00085FFFCCF94
:107FA0009093C60008958091C00087FFFCCF809118
:107FB000C00084FD01C0A8958091C6000895E0E648
:107FC000F0E098E1908380830895EDDF803219F02E
:107FD00088E0F5DFFFCF84E1DECF1F93182FE3DFCA
:107FE0001150E9F7F2DF1F91089580E0E8DFEE27F6
:047FF000FF270994CA
:027FFE00040479
:00000001FF
