:020000040000FA
:100000000C9461000C947E000C947E000C947E0095
:100010000C947E000C947E000C947E000C947E0068
:100020000C947E000C947E000C947E000C94510283
:100030000C947E000C947E000C947E000C947E0048
:100040000C9407020C947E000C947E000C947E00AD
:100050000C947E000C947E000C947E000C947E0028
:100060000C947E000C947E00000000002400270009
:100070002A0000000000250028002B0000000000DE
:1000800023002600290004040404040404040202DA
:100090000202020203030303030301020408102007
:1000A0004080010204081020010204081020000012
:1000B0000008000201000003040700000000000027
:1000C000000011241FBECFEFD8E0DEBFCDBF11E08E
:1000D000A0E0B1E0EEE0FAE002C005900D92A83693
:1000E000B107D9F721E0A8E6B1E001C01D92AC3715
:1000F000B207E1F70E94C3020C9405050C940000BE
:10010000833081F028F4813099F08230A9F008958D
:100110008730A9F08830C9F08430B1F48091800034
:100120008F7D03C0809180008F7780938000089539
:1001300084B58F7784BD089584B58F7DFBCF809182
:10014000B0008F778093B00008958091B0008F7DCC
:10015000F9CFCF93DF93282F30E0F901E255FF4F1D
:100160008491F901E656FF4FD491F901EA57FF4F08
:10017000C491CC23A1F081110E948000EC2FF0E00B
:10018000EE0FFF1FE458FF4FA591B491EC91ED23C2
:1001900081E090E009F480E0DF91CF91089580E064
:1001A00090E0FACF1F93CF93DF93282F30E0F9012F
:1001B000E255FF4F8491F901E656FF4FD491F901C2
:1001C000EA57FF4FC491CC23A9F0162F81110E944A
:1001D0008000EC2FF0E0EE0FFF1FEE58FF4FA591CF
:1001E000B4918FB7F894EC91111108C0D095DE232B
:1001F000DC938FBFDF91CF911F910895DE2BF8CF55
:10020000DC0180917A018111FCCF8DE0809309019E
:1002100086E180930A01EC9123EA2E2730E1239FA7
:10022000C0011124282730E0F0E084E0F595E7953F
:100230008A95E1F7ED5AFE4F808180930B01EC9196
:10024000EF70F0E0ED5AFE4F808180930C01922F09
:1002500088278964A90164E0559547956A95E1F777
:100260008427952773E0220F331F7A95E1F78227C1
:10027000932780959095FC01A4E0F695E795AA95C3
:10028000E1F7EF70FF27ED5AFE4F208120930D011B
:10029000FC01EF70FF27ED5AFE4F208120930E01E5
:1002A000FC01EF2FFF27E295EF70ED5AFE4F208102
:1002B00020930F01E92FFF27EF70FF27ED5AFE4F24
:1002C00080818093100180E180937B0110927901FD
:1002D000109278011092770161E08AE00E94D200CA
:1002E00081E080937A010895CF93DF9390E0FC0141
:1002F000E656FF4F24918A579F4FFC018491882333
:10030000C9F090E0880F991FFC01E859FF4FA591B3
:10031000B491FC01EE58FF4FC591D49161110DC00D
:100320009FB7F8948C91209582238C938881282301
:1003300028839FBFDF91CF910895623051F49FB71A
:10034000F8943C91822F809583238C93E8812E2B07
:10035000EFCF8FB7F894EC912E2B2C938FBFEACF71
:100360003FB7F8948091710190917201A09173014F
:10037000B091740126B5A89B05C02F3F19F00196D6
:10038000A11DB11D3FBFBA2FA92F982F8827BC01EF
:10039000CD01620F711D811D911D42E0660F771F17
:1003A000881F991F4A95D1F708958F929F92AF9217
:1003B000BF92CF92DF92EF92FF924B015C010E94BD
:1003C000B0016B017C010E94B0016C197D098E099E
:1003D0009F09683E734081059105A8F321E0821AC8
:1003E0009108A108B10888EEC80E83E0D81EE11C70
:1003F000F11C81149104A104B10429F7FF90EF903E
:10040000DF90CF90BF90AF909F908F9008951F92F4
:100410000F920FB60F9211242F933F938F939F93B8
:10042000AF93BF9380916D0190916E01A0916F0188
:10043000B091700130916C0123E0230F2D3758F5F6
:100440000196A11DB11D20936C0180936D019093C5
:100450006E01A0936F01B093700180917101909132
:100460007201A0917301B09174010196A11DB11D9B
:100470008093710190937201A0937301B093740102
:10048000BF91AF919F918F913F912F910F900FBE90
:100490000F901F90189526E8230F0296A11DB11DFD
:1004A000D2CF1F920F920FB60F9211241F932F934A
:1004B0003F934F935F936F937F938F939F93AF93EC
:1004C000BF93CF93DF93EF93FF9380917A018823BB
:1004D00019F18091770191E0980F90937701811144
:1004E0001BC0C09179011091000180917B01C81758
:1004F00068F160E08AE00E94D20060E0812F0E94F3
:10050000D20010927A0180916A0190916B0101965C
:1005100090936B0180936A0180917701883010F08D
:1005200010927701FF91EF91DF91CF91BF91AF9141
:100530009F918F917F916F915F914F913F912F91FB
:100540001F910F900FBE0F901F901895EC2FF0E0A9
:10055000EF5FFE4F608120917801D1E0D20FD09300
:10056000780181E090E001C0880F2A95EAF76823BE
:10057000812F0E94D200D630A8F210927801CF5F6E
:10058000C0937901C9CFCF93DF93CDB7DEB72E9754
:100590000FB6F894DEBF0FBECDBF789484B58260ED
:1005A00084BD84B5816084BD85B5826085BD85B517
:1005B000816085BD80916E00816080936E00109295
:1005C0008100809181008260809381008091810010
:1005D00081608093810080918000816080938000A1
:1005E0008091B10084608093B1008091B0008160FF
:1005F0008093B00080917A00846080937A0080912B
:100600007A00826080937A0080917A008160809382
:100610007A0080917A00806880937A001092C100FD
:100620008CE0809300018EE0E5E4F1E0DE011196BC
:1006300001900D928A95E1F77E0123E0E20EF11C14
:1006400011E0F701619171917F0190E080E00E94DB
:1006500077049B01AC0160E074E284E79BE40E94B4
:10066000CF039B01AC0160E070E080E89FE30E9453
:10067000CF039B01AC016FE672E183E898E30E942F
:10068000CF030E9441044B015C01F2E08F1A9108F4
:10069000A108B1082DEF82162FEF9206A104B10434
:1006A00008F479C01F5F173061F66230710581056B
:1006B000910550F161157105E1E08E07910520F576
:1006C0001092800028E02093810020918100122B5D
:1006D00010938100709389006093880080916F006F
:1006E000826080936F0061E0809100010E9474013C
:1006F00060E08BE00E94740161E08AE00E94740176
:1007000060E08AE00E94D20062E084E00E9474010E
:1007100000E010E0EE24E394F12C84E00E94A900B4
:10072000892BC1F480917501909176010097F1F4C5
:1007300083E691E00E94000180917A018111FCCF53
:1007400064EF71E080E090E00E94D501F0927601C4
:10075000E092750168EC70E080E090E00E94D501C5
:1007600001151105D1F20E940000D7CF019791F732
:1007700085E691E00E94000180917A018111FCCF11
:1007800064EF71E080E090E00E94D5011092760164
:1007900010927501DFCF163009F092CFB5CF0E94CD
:1007A000E3030C94CB040E94C40458F00E94BD04DF
:1007B00040F029F45F3F29F00C94B40451110C94DB
:1007C000FF040C94BA040E94DC0468F39923B1F38B
:1007D000552391F3951B550BBB27AA276217730767
:1007E000840738F09F5F5F4F220F331F441FAA1FFB
:1007F000A9F335D00E2E3AF0E0E832D091505040B7
:10080000E695001CCAF72BD0FE2F29D0660F771F64
:10081000881FBB1F261737074807AB07B0E809F04A
:10082000BB0B802DBF01FF2793585F4F3AF09E3FCF
:10083000510578F00C94B4040C94FF045F3FE4F38A
:10084000983ED4F3869577956795B795F7959F5F12
:10085000C9F7880F911D9695879597F90895E1E05E
:10086000660F771F881FBB1F621773078407BA07BD
:1008700020F0621B730B840BBA0BEE1F88F7E09518
:1008800008950E9448046894B1110C94FF040895DF
:100890000E94E40488F09F5798F0B92F9927B75128
:1008A000B0F0E1F0660F771F881F991F1AF0BA9514
:1008B000C9F714C0B13091F00E94FE04B1E0089570
:1008C0000C94FE04672F782F8827B85F39F0B93F62
:1008D000CCF3869577956795B395D9F73EF49095C7
:1008E0008095709561957F4F8F4F9F4F0895E89445
:1008F00009C097FB3EF490958095709561957F4F68
:100900008F4F9F4F9923A9F0F92F96E9BB27939515
:10091000F695879577956795B795F111F8CFFAF425
:10092000BB0F11F460FF1BC06F5F7F4F8F4F9F4F56
:1009300016C0882311F096E911C0772321F09EE8B4
:10094000872F762F05C0662371F096E8862F70E01A
:1009500060E02AF09A95660F771F881FDAF7880FF4
:100960009695879597F9089597F99F6780E870E0C5
:1009700060E008959FEF80EC089500240A94161615
:10098000170618060906089500240A94121613067D
:10099000140605060895092E0394000C11F488230B
:1009A00052F0BB0F40F4BF2B11F460FF04C06F5F27
:1009B0007F4F8F4F9F4F089557FD9058440F551FFD
:1009C00059F05F3F71F04795880F97FB991F61F0D1
:1009D0009F3F79F087950895121613061406551F48
:1009E000F2CF4695F1DF08C0161617061806991FB4
:1009F000F1CF86957105610508940895E894BB27A9
:100A000066277727CB0197F90895F894FFCF0C2A32
:100A10002A2A2A2A2A382C000000000000000000A0
:100A200000000000000000000000000000000000C6
:100A300000000000000000000000000000000000B6
:100A400000000000000000000000000000000000A6
:100A50000000000000010008004000000100040543
:100A60000D0D0E131516191A1C232526292A2C32B2
:060A700034610062000089
:107E0000112484B714BE81FFF0D085E080938100F7
:107E100082E08093C00088E18093C10086E0809377
:107E2000C20080E18093C4008EE0C9D0259A86E02C
:107E300020E33CEF91E0309385002093840096BBD3
:107E4000B09BFECF1D9AA8958150A9F7CC24DD24C4
:107E500088248394B5E0AB2EA1E19A2EF3E0BF2EE7
:107E6000A2D0813461F49FD0082FAFD0023811F036
:107E7000013811F484E001C083E08DD089C08234E0
:107E800011F484E103C0853419F485E0A6D080C0E4
:107E9000853579F488D0E82EFF2485D0082F10E0AE
:107EA000102F00270E291F29000F111F8ED06801E7
:107EB0006FC0863521F484E090D080E0DECF843638
:107EC00009F040C070D06FD0082F6DD080E0C81688
:107ED00080E7D80618F4F601B7BEE895C0E0D1E017
:107EE00062D089930C17E1F7F0E0CF16F0E7DF06D8
:107EF00018F0F601B7BEE89568D007B600FCFDCFD4
:107F0000A601A0E0B1E02C9130E011968C91119780
:107F100090E0982F8827822B932B1296FA010C0160
:107F200087BEE89511244E5F5F4FF1E0A038BF0790
:107F300051F7F601A7BEE89507B600FCFDCF97BE46
:107F4000E89526C08437B1F42ED02DD0F82E2BD052
:107F50003CD0F601EF2C8F010F5F1F4F84911BD097
:107F6000EA94F801C1F70894C11CD11CFA94CF0C13
:107F7000D11C0EC0853739F428D08EE10CD085E9AC
:107F80000AD08FE07ACF813511F488E018D01DD067
:107F900080E101D065CF982F8091C00085FFFCCF94
:107FA0009093C60008958091C00087FFFCCF809118
:107FB000C00084FD01C0A8958091C6000895E0E648
:107FC000F0E098E1908380830895EDDF803219F02E
:107FD00088E0F5DFFFCF84E1DECF1F93182FE3DFCA
:107FE0001150E9F7F2DF1F91089580E0E8DFEE27F6
:047FF000FF270994CA
:027FFE00040479
:00000001FF
